:020000040800F2
:10000000002800205D160008ED150008F315000813
:10001000F9150008FF15000805160008000000008B
:100020000000000000000000000000000B160008A7
:100030001716000800000000231600082F160008FD
:10004000A5160008A5160008A5160008A5160008A4
:10005000A5160008A5160008A5160008A516000894
:10006000A5160008A5160008A5160008A516000884
:10007000A5160008A5160008A5160008A516000874
:10008000A5160008A5160008A5160008A516000864
:10009000A5160008A5160008A5160008A516000854
:1000A000A5160008A5160008A5160008A516000844
:1000B0003D160008A516000800000000A51600085F
:1000C000A51600080000000000000000A5160008AA
:1000D00000000000A5160008A5160008000000009A
:1000E000A5160008A5160008A516000800000000C7
:1000F0000000000000000000000000000000000000
:0C01000000000000000000005FF808F1A3
:10010C0010B5054C237833B9044B13B10448AFF345
:10011C0000800123237010BD6C0000200000000043
:10012C00FC2C000808B5034B1BB103490348AFF383
:10013C00008008BD0000000070000020FC2C0008AE
:10014C0080B582B000AF78607B68043B032B4BD842
:10015C0001A252F823F000BF95010008B501000878
:10016C00D50100087501000800222021214801F06A
:10017C0096FD002240211F4801F091FD00228021B4
:10018C001C4801F08CFD30E000222021194801F0C0
:10019C0086FD01224021174801F081FD01228021BA
:1001AC00144801F07CFD20E001222021114801F0CF
:1001BC0076FD002240210F4801F071FD01228021C3
:1001CC000C4801F06CFD10E001222021094801F0DF
:1001DC0066FD01224021074801F061FD00228021CB
:1001EC00044801F05CFD00E000BF00BF0837BD46CD
:1001FC0080BD00BF0008014080B582B000AF7860C0
:10020C007B68043B032B4BD801A252F823F000BFB0
:10021C004D0200086D0200088D0200082D02000836
:10022C0000222021214801F03AFD002240211F48E4
:10023C0001F035FD002280211C4801F030FD30E03A
:10024C0000222021194801F02AFD012240211748E3
:10025C0001F025FD01228021144801F020FD20E051
:10026C0001222021114801F01AFD002240210F48E3
:10027C0001F015FD012280210C4801F010FD10E069
:10028C0001222021094801F00AFD012240210748E2
:10029C0001F005FD00228021044801F000FD00E082
:1002AC0000BF00BF0837BD4680BD00BF000C014039
:1002BC0080B500AF3C4B1B68043B032B6AD801A2F2
:1002CC0052F823F0F9020008310300086903000812
:1002DC00E1020008344B04221A60344B1B68344A88
:1002EC0013606421032001F0E5F85AE00420FFF7C5
:1002FC0027FF304BDB68012B4ED12D4B1B68013B8C
:10030C002B4A13602A4B1B68002B06DC264B06225B
:10031C001A60294B1B68264A13606421032001F0E4
:10032C00C9F839E00520FFF70BFF224BDB68012BE6
:10033C0034D11F4B1B68013B1D4A13601C4B1B68BF
:10034C00002B06DC184B04221A60184B1B68184A49
:10035C0013606421032001F0ADF81FE00620FFF7C5
:10036C00EFFE144BDB68012B1AD1114B1B68013BC0
:10037C000F4A13600E4B1B68002B06DC0A4B052240
:10038C001A600E4B1B680A4A13606421032001F0AB
:10039C0091F805E000BF04E000BF02E000BF00E000
:1003AC0000BF00BF80BD00BF440000204C000020F7
:1003BC0058000020C40000205400002050000020F1
:1003CC0080B500AF3C4B1B68043B032B6AD801A2E1
:1003DC0052F823F0090400084104000879040008CD
:1003EC00F1030008344B06221A60344B1B68344A64
:1003FC0013606421022001F05DF85AE00420FFF73D
:10040C00FBFE304B9B68012B4ED12D4B1B68013BE7
:10041C002B4A13602A4B1B68002B06DC264B06224A
:10042C001A60264B1B68264A13606421022001F0D7
:10043C0041F839E00520FFF7DFFE224B9B68012BCA
:10044C0034D11F4B1B68013B1D4A13601C4B1B68AE
:10045C00002B06DC184B04221A601B4B1B68184A35
:10046C0013606421022001F025F81FE00620FFF73D
:10047C00C3FE144B9B68012B1AD1114B1B68013B1B
:10048C000F4A13600E4B1B68002B06DC0A4B05222F
:10049C001A600E4B1B680A4A13606421022001F09B
:1004AC0009F805E000BF04E000BF02E000BF00E077
:1004BC0000BF00BF80BD00BF4800002054000020DA
:1004CC005C000020C40000204C00002050000020E4
:1004DC0080B582B000AF78607B68092B00F2948104
:1004EC0001A252F823F000BF1D05000869050008A1
:1004FC00B5050008010600084D060008990600081D
:10050C00E5060008310700087D070008C907000848
:10051C0000220121D14801F0C2FB00220221CF4868
:10052C0001F0BDFB00220421CC4801F0B8FB0022F5
:10053C000821CA4801F0B3FB00221021C74801F082
:10054C00AEFB00224FF48071C44801F0A8FB0122DD
:10055C004FF40071C14801F0A2FB7BE101220121A3
:10056C00BE4801F09CFB00220221BC4801F097FB25
:10057C0000220421B94801F092FB01220821B7485E
:10058C0001F08DFB01221021B44801F088FB0122FF
:10059C004FF48071B14801F082FB01224FF40071DD
:1005AC00AE4801F07CFB55E100220121AB4801F083
:1005BC0076FB00220221A94801F071FB01220421E3
:1005CC00A64801F06CFB00220821A44801F067FB4F
:1005DC0000221021A14801F062FB01224FF480712E
:1005EC009E4801F05CFB00224FF400719B4801F027
:1005FC0056FB2FE100220121984801F050FB00220C
:10060C000221964801F04BFB00220421934801F093
:10061C0046FB00220821914801F041FB01221021E8
:10062C008E4801F03CFB01224FF480718B4801F0A5
:10063C0036FB00224FF40071884801F030FB09E1D1
:10064C0001220121854801F02AFB00220221834866
:10065C0001F025FB00220421804801F020FB01223F
:10066C0008217E4801F01BFB012210217B4801F080
:10067C0016FB00224FF48071784801F010FB002229
:10068C004FF40071754801F00AFBE3E000220121F0
:10069C00724801F004FB01220221704801F0FFFABC
:1006AC00002204216D4801F0FAFA002208216B485F
:1006BC0001F0F5FA01221021684801F0F0FA00224D
:1006CC004FF48071654801F0EAFA00224FF4007192
:1006DC00624801F0E4FABDE0002201215F4801F01C
:1006EC00DEFA012202215D4801F0D9FA0022042130
:1006FC005A4801F0D4FA00220821584801F0CFFAE8
:10070C0000221021554801F0CAFA00224FF48071E2
:10071C00524801F0C4FA00224FF400714F4801F026
:10072C00BEFA97E0002201214C4801F0B8FA0022F1
:10073C0002214A4801F0B3FA00220421474801F093
:10074C00AEFA01220821454801F0A9FA0122102134
:10075C00424801F0A4FA01224FF480713F4801F0A5
:10076C009EFA01224FF400713C4801F098FA71E0B6
:10077C0000220121394801F092FA00220221374867
:10078C0001F08DFA00220421344801F088FA00228D
:10079C000821324801F083FA002210212F4801F081
:1007AC007EFA00224FF480712C4801F078FA002276
:1007BC004FF40071294801F072FA4BE0002201213C
:1007CC00264801F06CFA00220221244801F067FA55
:1007DC0000220421214801F062FA002208211F485E
:1007EC0001F05DFA012210211C4801F058FA002298
:1007FC004FF48071194801F052FA00224FF4007145
:10080C00164801F04CFA25E001220121134801F0B1
:10081C0046FA01220221114801F041FA0122042179
:10082C000E4801F03CFA012208210C4801F037FA7D
:10083C0001221021094801F032FA01224FF4807193
:10084C00064801F02CFA01224FF40071034801F024
:10085C0026FA00BF00BF0837BD4680BD0008014026
:10086C0080B582B000AF78607B68032B6ED801A294
:10087C0052F823F091080008C3080008F508000896
:10088C002709000800224FF48071334801F007FA61
:10089C0001224FF40071304801F001FA01224FF4AB
:1008AC0080612D4801F0FBF901224FF400612A48C8
:1008BC0001F0F5F94BE001224FF48071264801F06C
:1008CC00EEF900224FF40071234801F0E8F90122FF
:1008DC004FF48061204801F0E2F901224FF40061ED
:1008EC001D4801F0DCF932E001224FF480711A4806
:1008FC0001F0D5F901224FF40071174801F0CFF93E
:10090C0000224FF48061144801F0C9F901224FF420
:10091C000061114801F0C3F919E001224FF4807114
:10092C000D4801F0BCF901224FF400710A4801F0A6
:10093C00B6F901224FF48061074801F0B0F90022AA
:10094C004FF40061044801F0AAF900E000BF00BFB9
:10095C000837BD4680BD00BF000C014080B483B099
:10096C0000AF7860094A7B6852F82330012B06D11E
:10097C00064A7B68002142F82310012300E0002383
:10098C0018460C37BD4680BC704700BF880000205D
:10099C0080B483B000AF7860044A7B68012142F8D0
:1009AC00231000BF0C37BD4680BC70478800002068
:1009BC0080B582B000AF7860314A7B6852F8232052
:1009CC0030497B6841F823202F4A7B6852F823205A
:1009DC002B497B6841F823202C4A7B6852F8233042
:1009EC009BB219462A4801F043F903461946264A98
:1009FC007B6842F82310234A7B6852F82320204955
:100A0C007B6851F823309A4236D11D4A7B6852F8E4
:100A1C0023201D497B6851F823309A422CD11A4A65
:100A2C007B6852F823201B497B6851F823309A428B
:100A3C0014D0154A7B6852F8232016497B6841F87C
:100A4C002320114A7B6852F82330002B14D178688C
:100A5C00FFF79EFF104B32221A600DE00E4B1B6805
:100A6C00013B0D4A13600C4B1B68002B04DC094A3C
:100A7C007B68012142F8231000BF0837BD4680BDBA
:100A8C00180000200C000020240000200000002092
:100A9C00000C0140300000203C00002080B500AF6D
:100AAC00494B1B680B2B6ED1FFF702FCFFF788FC40
:100ABC00464B5B68012B66D1454B1B68032B51D809
:100ACC0001A252F823F000BFE50A0008030B00084E
:100ADC002B0B0008490B00080020FFF7C1FE3D4B13
:100AEC001B683D4A82FB03129210DB17D31A18467F
:100AFC00FFF7EEFC37E00120FFF7B2FE354B1A682A
:100B0C00354B83FB02139910D317C91A0B469B0064
:100B1C000B445B00D11A0846FFF7DAFC23E00220F5
:100B2C00FFF79EFE2D4B1B682B4A82FB0312921083
:100B3C00DB17D31A1846FFF7CBFC14E00320FFF7A2
:100B4C008FFE264B1A68244B83FB02139910D31784
:100B5C00C91A0B469B000B445B00D11A0846FFF7E1
:100B6C00B7FC00E000BF1A4B1B680133184A136036
:100B7C00174B1B68032B02DD154B00221A600A2150
:100B8C00012000F097FC0020FFF7E8FE0346012B44
:100B9C0018D10D4B0C221A60114B1B68114A1360B3
:100BAC004FF47A71002000F085FC0A21042000F03B
:100BBC0081FC3221052000F07DFC054B00221A60DF
:100BCC0000F004FB00BF80BD40000020C4000020EA
:100BDC009800002058000020676666665C000020C4
:100BEC004C0000209400002080B500AF0120FFF7DE
:100BFC00B5FE0346012B0BD13E4B1B6801333D4A1E
:100C0C0013603C4B1B68632B02DD3A4B01221A60CC
:100C1C000220FFF7A3FE0346012B03D1354B1B68C3
:100C2C00354A1360354B1B69012B51D1344B1B6872
:100C3C00032B3CD801A252F823F000BF590C00083A
:100C4C00670C0008750C0008930C00080020FFF7D7
:100C5C0007FE0020FFF73CFC2AE00120FFF700FE16
:100C6C000220FFF735FC23E00220FFF7F9FD214BB2
:100C7C001B68244A82FB03129210DB17D31A184606
:100C8C00FFF726FC14E00320FFF7EAFD194B1A6866
:100C9C001C4B83FB02139910D317C91A0B469B00EC
:100CAC000B445B00D11A0846FFF712FC00E000BFB2
:100CBC00134B1B680133124A1360114B1B68032B37
:100CCC0002DD0F4B00221A600A21042000F0F2FB17
:100CDC000A4B5B69012B0BD120210B4800F0F7FF6D
:100CEC0020210A4800F0F3FF3221052000F0E2FB3E
:100CFC0000BF80BD940000204C000020C4000020E8
:100D0C00980000206766666600080140000C0140F0
:100D1C0080B500AF0120FFF721FE0346012B0BD15C
:100D2C003E4B1B6801333D4A13603C4B1B68632BE5
:100D3C0002DD3A4B01221A600220FFF70FFE034638
:100D4C00012B03D1354B1B68354A1360354B9B691E
:100D5C00012B51D1344B1B68032B3CD801A252F808
:100D6C0023F000BF810D00088F0D00089D0D0008B9
:100D7C00BB0D00080020FFF773FD0020FFF7A8FB58
:100D8C002AE00120FFF76CFD0320FFF7A1FB23E015
:100D9C000220FFF765FD214B1B68244A82FB0312DE
:100DAC009210DB17D31A1846FFF792FB14E00320BE
:100DBC00FFF756FD194B1A681C4B83FB0213991055
:100DCC00D317C91A0B469B000B445B00D11A08467B
:100DDC00FFF77EFB00E000BF134B1B680133124A88
:100DEC001360114B1B68032B02DD0F4B00221A60A2
:100DFC000A21062000F05EFB0A4BDB69012B0BD1AC
:100E0C0040210B4800F063FF40210A4800F05FFFCF
:100E1C003221072000F04EFB00BF80BD9400002063
:100E2C0050000020C4000020980000206766666611
:100E3C0000080140000C014080B500AF0120FFF715
:100E4C008DFD0346012B0BD13E4B1B6801333D4AF4
:100E5C0013603C4B1B68632B02DD3A4B01221A607A
:100E6C000220FFF77BFD0346012B03D1354B1B689A
:100E7C00354A1360354B1B6A012B51D1344B1B681F
:100E8C00032B3CD801A252F823F000BFA90E000896
:100E9C00B70E0008C50E0008E30E00080020FFF78F
:100EAC00DFFC0020FFF714FB2AE00120FFF7D8FC41
:100EBC000420FFF70DFB23E00220FFF7D1FC214BB0
:100ECC001B68244A82FB03129210DB17D31A1846B4
:100EDC00FFF7FEFA14E00320FFF7C2FC194B1A6867
:100EEC001C4B83FB02139910D317C91A0B469B009A
:100EFC000B445B00D11A0846FFF7EAFA00E000BF8A
:100F0C00134B1B680133124A1360114B1B68032BE4
:100F1C0002DD0F4B00221A600A21082000F0CAFAE9
:100F2C000A4B5B6A012B0BD180210B4800F0CFFEE2
:100F3C0080210A4800F0CBFE3221092000F0BAFAD9
:100F4C0000BF80BD9400002054000020C40000208D
:100F5C00980000206766666600080140000C01409E
:100F6C0080B483B000AF2B4B1A682B4B1B681A4410
:100F7C002A4B1B689A4230DA284B1A68254B1968A1
:100F8C00254B1B680B44D31A7B60244B1B68052B29
:100F9C001DDD214B1B68022B19DC1F4B1B68C3F199
:100FAC0003037A689A420ADB1B4B1B68C3F10303E9
:100FBC007A68D31A7B60184B03221A6007E0164B31
:100FCC001A687B681344144A136000237B60114B2E
:100FDC001A687B6813440F4A13600E4B1A680E4B49
:100FEC001B681A440D4B1B689A420EDD094B1A689C
:100FFC00094B1B681A44094B1B68D31A3B60074BFF
:10100C001A683B681344054A136000BF0C37BD4691
:10101C0080BC704754000020500000204C00002081
:10102C0080B500AF614B1B680E2B00F08B800E2B34
:10103C0000F3B2800C2B02D00D2B42D0ACE0FFF7AA
:10104C00D3FD5B4B1B68012B1AD1584B0B221A603A
:10105C00584B00221A60584B07221A60574B072234
:10106C001A604FF47A71002000F024FA0A21012052
:10107C0000F020FA3221022000F01CFA00F0A6F851
:10108C000020FFF76BFC0346012B40F08780474B99
:10109C000D221A604A4B1B684A4A13604FF47A714E
:1010AC00002000F007FA0A21062000F003FA322192
:1010BC00072000F0FFF93F4B00221A6000F086F881
:1010CC006CE0FFF725FE3A4B1B68012B1AD1374B0E
:1010DC000B221A60374B00221A60374B07221A601A
:1010EC00364B07221A604FF47A71002000F0E2F9B7
:1010FC000A21012000F0DEF93221022000F0DAF999
:10110C0000F064F80020FFF729FC0346012B47D1BF
:10111C00264B0E221A602C4B1B682A4A13604FF484
:10112C007A71002000F0C6F90A21082000F0C2F9FB
:10113C003221092000F0BEF91E4B00221A6000F08B
:10114C0045F82DE0FFF778FE0020FFF707FC03467B
:10115C00012B03D0164B1B68012B23D1FFF700FF8B
:10116C00124B0B221A60134B00221A60124B0722EF
:10117C001A60124B07221A604FF47A71002000F0AB
:10118C0099F90A21012000F095F93221022000F092
:10119C0091F900F01BF805E000BF04E000BF02E08D
:1011AC0000BF00E000BF00BF80BD00BF40000020BA
:1011BC00C4000020980000204400002048000020BB
:1011CC0050000020940000205400002080B500AF97
:1011DC00002240F21F31074800F061FD0122E0219E
:1011EC00044800F05CFD0122E021034800F057FDAB
:1011FC0000BF80BD00080140000C014080B500AF6D
:10120C0000F04CFA00F038F800F0BEF800F070F87E
:10121C00174801F0ADF90A21012000F04BF90A2121
:10122C00022000F047F90A21032000F043F90A21BB
:10123C00042000F03FF93221052000F03BF90A218F
:10124C00062000F037F93221072000F033F90A218B
:10125C00082000F02FF93221092000F02BF9054B62
:10126C000B221A60FFF71AFCFFF7DAFEFAE700BF51
:10127C00EC0000204000002080B590B000AF07F1DA
:10128C00180328220021184601F02AFD3B1D0022DC
:10129C001A605A609A60DA601A610223BB610123FA
:1012AC00BB621023FB6200237B6307F11803184613
:1012BC0000F026FD0346002B01D000F0F6F80F23BA
:1012CC007B600023BB600023FB6000233B61002399
:1012DC007B613B1D0021184600F092FF0346002B5A
:1012EC0001D000F0E2F800BF4037BD4680BD0000E1
:1012FC0080B586B000AF07F1080300221A605A606F
:10130C009A60DA603B4600221A605A601D4B4FF01F
:10131C0080421A601B4B41F63F725A60194B0022F7
:10132C009A60184B0922DA60164B00221A61154B91
:10133C0000229A61134801F0CBF80346002B01D030
:10134C0000F0B3F84FF48053BB6007F10803194663
:10135C000C4801F061FA0346002B01D000F0A5F80F
:10136C0000233B6000237B603B461946054801F097
:10137C0029FC0346002B01D000F097F800BF18376A
:10138C00BD4680BDEC00002080B586B000AF07F1F3
:10139C00080300221A605A609A60DA60284B9B6935
:1013AC00274A43F004039361254B9B6903F0040324
:1013BC007B607B68224B9B69214A43F00803936155
:1013CC001F4B9B6903F008033B603B68002240F213
:1013DC00FF311C4800F063FC00224FF47E611A4878
:1013EC0000F05DFC40F2FF33BB600123FB60002387
:1013FC003B6102237B6107F108031946114800F099
:10140C00BDFA0723BB600023FB6001233B6107F19E
:10141C00080319460C4800F0B1FA4FF47E63BB6028
:10142C000123FB6000233B6102237B6107F108036E
:10143C001946054800F0A2FA00BF1837BD4680BD1A
:10144C000010024000080140000C014080B582B041
:10145C0000AF7860002000F045F8012000F042F861
:10146C00022000F03FF8032000F03CF8042000F0CC
:10147C0039F8052000F036F8062000F033F8072084
:10148C0000F030F8082000F02DF8092000F02AF8C0
:10149C000020FFF78DFA0120FFF78AFA0220FFF7F0
:1014AC0087FA00BF0837BD4680BD80B400AF72B666
:1014BC0000BFFEE780B483B000AF786039600749A5
:1014CC007B683A6841F82320054A7B68002142F882
:1014DC00231000BF0C37BD4680BC70479C00002019
:1014EC00C400002080B483B000AF78600F4A7B68E2
:1014FC0052F82330002B13DD0C4A7B6852F8233052
:10150C005A1E0A497B6841F82320084A7B6852F826
:10151C002330002B04DC064A7B68012142F823109F
:10152C0000BF0C37BD4680BC704700BF9C0000203C
:10153C00C400002080B485B000AF154B9B69144AE1
:10154C0043F001039361124B9B6903F00103BB60F1
:10155C00BB680F4BDB690E4A43F08053D3610C4BD5
:10156C00DB6903F080537B607B680A4B5B68FB6034
:10157C00FB6823F0E063FB60FB6843F00073FB60E7
:10158C00044AFB68536000BF1437BD4680BC7047EB
:10159C00001002400000014080B584B000AF7860BC
:1015AC007B681B68B3F1804F13D10C4BDB690B4A82
:1015BC0043F00103D361094BDB6903F00103FB60CA
:1015CC00FB6800220F211C2000F0A1F91C2000F068
:1015DC00BAF900BF1037BD4680BD00BF00100240F5
:1015EC0080B400AFFEE780B400AFFEE780B400AF7C
:1015FC00FEE780B400AFFEE780B400AFFEE780B436
:10160C0000AF00BFBD4680BC704780B400AF00BFC8
:10161C00BD4680BC704780B400AF00BFBD4680BCE7
:10162C00704780B500AF00F07FF800BF80BD0000B0
:10163C0080B500AF024800F0E7FF00BF80BD00BFDF
:10164C00EC00002080B400AF00BFBD4680BC7047EA
:10165C000C480D490D4A002302E0D458C450043301
:10166C00C4188C42F9D30A4A0A4C002301E01360D7
:10167C000432A242FBD3FFF7E5FF01F00DFBFFF7AD
:10168C00BDFD7047000000206C0000203C2D0008C0
:10169C006C00002038010020FEE7000080B500AF90
:1016AC00084B1B68074A43F010031360032000F03B
:1016BC0023F90F2000F008F8FFF73CFF0023184631
:1016CC0080BD00BF0020024080B582B000AF7860C2
:1016DC00124B1A68124B1B7819464FF47A73B3FBF2
:1016EC00F1F3B2FBF3F3184600F03BF90346002B81
:1016FC0001D001230EE07B680F2B0AD800227968F9
:10170C004FF0FF3000F003F9064A7B6813600023AA
:10171C0000E0012318460837BD4680BD600000205C
:10172C00680000206400002080B400AF054B1B78DB
:10173C001A46054B1B681344034A136000BFBD4691
:10174C0080BC7047680000203401002080B400AFDA
:10175C00024B1B681846BD4680BC70473401002004
:10176C0080B485B000AF78607B6803F00703FB6042
:10177C000C4BDB68BB60BA684FF6FF031340BB60D1
:10178C00FB681A02BB68134343F0BF6343F4003396
:10179C00BB60044ABB68D36000BF1437BD4680BC35
:1017AC00704700BF00ED00E080B400AF044BDB6875
:1017BC001B0A03F007031846BD4680BC704700BFE8
:1017CC0000ED00E080B483B000AF0346FB7197F9E5
:1017DC000730002B0BDBFB7903F01F02064997F94E
:1017EC0007305B09012000FA02F241F8232000BF08
:1017FC000C37BD4680BC704700E100E080B483B07C
:10180C0000AF03463960FB7197F90730002B0ADBF8
:10181C003B68DAB20C4997F907301201D2B20B448B
:10182C0083F800230AE03B68DAB20849FB7903F03D
:10183C000F03043B1201D2B20B441A7600BF0C37D3
:10184C00BD4680BC704700BF00E100E000ED00E049
:10185C0080B489B000AFF860B9607A60FB6803F0BF
:10186C000703FB61FB69C3F10703042B28BF0423A7
:10187C00BB61FB690433062B02D9FB69033B00E017
:10188C0000237B614FF0FF32BB6902FA03F3DA43AA
:10189C00BB681A407B699A404FF0FF317B6901FAB3
:1018AC0003F3D9437B680B40134318462437BD46DA
:1018BC0080BC704780B582B000AF78607B68013B1C
:1018CC00B3F1807F01D301230FE00A4A7B68013B0F
:1018DC0053600F214FF0FF30FFF790FF054B0022B4
:1018EC009A60044B07221A60002318460837BD463D
:1018FC0080BD00BF10E000E080B582B000AF786022
:10190C007868FFF72DFF00BF0837BD4680BD80B556
:10191C0086B000AF0346B9607A60FB7300237B612D
:10192C00FFF742FF78617A68B9687869FFF790FF32
:10193C00024697F90F3011461846FFF75FFF00BFBC
:10194C001837BD4680BD80B582B000AF0346FB7131
:10195C0097F907301846FFF735FF00BF0837BD462B
:10196C0080BD80B582B000AF78607868FFF7A2FFC9
:10197C00034618460837BD4680BD000080B48BB0C6
:10198C0000AF7860396000237B6200233B6248E142
:10199C0001227B6A02FA03F3FB613B681B68FA695C
:1019AC001340BB61BA69FB699A4240F037813B68CE
:1019BC005B68A34A93425ED0A14A934275D8A14A70
:1019CC00934258D09F4A93426FD89F4A934252D029
:1019DC009D4A934269D89D4A93424CD09B4A93426C
:1019EC0063D89B4A934246D0994A93425DD8122BB6
:1019FC002AD8122B59D801A252F823F0831A0008C6
:101A0C005D1A00086F1A0008B11A0008B71A00080E
:101A1C00B71A0008B71A0008B71A0008B71A000856
:101A2C00B71A0008B71A0008B71A0008B71A000846
:101A3C00B71A0008B71A0008B71A0008B71A000836
:101A4C00651A0008791A0008824A934213D02CE0D8
:101A5C003B68DB683B6229E03B68DB6804333B6234
:101A6C0024E03B68DB6808333B621FE03B68DB68C3
:101A7C000C333B621AE03B689B68002B02D10423B9
:101A8C003B6213E03B689B68012B05D108233B624A
:101A9C007B68FA691A6109E008233B627B68FA6982
:101AAC005A6103E000233B6200E000BFBB69FF2BDF
:101ABC0001D87B6801E07B6804337B61BB69FF2B39
:101ACC0002D87B6A9B0002E07B6A083B9B003B616F
:101ADC007B691A680F213B6901FA03F3DB431A4057
:101AEC00396A3B6901FA03F31A437B691A603B6854
:101AFC005B6803F08053002B00F09080564B9B6981
:101B0C00554A43F001039361534B9B6903F0010366
:101B1C00BB60BB68514A7B6A9B08023352F8233086
:101B2C00FB607B6A03F003039B000F2202FA03F3B2
:101B3C00DB43FA681340FB607B68494A93420DD043
:101B4C007B68484A934207D07B68474A934201D14D
:101B5C00022304E0032302E0012300E000237A6A5D
:101B6C0002F0030292009340FA681343FB603B4976
:101B7C007B6A9B080233FA6841F823203B685B6858
:101B8C0003F48033002B06D0384B1A683749BB69F5
:101B9C0013430B6006E0354B1A68BB69DB433349D2
:101BAC0013400B603B685B6803F40033002B06D0DA
:101BBC002E4B5A682D49BB6913434B6006E02B4BE7
:101BCC005A68BB69DB43294913404B603B685B682F
:101BDC0003F48013002B06D0244B9A682349BB696D
:101BEC0013438B6006E0214B9A68BB69DB431F49AA
:101BFC0013408B603B685B6803F40013002B06D02A
:101C0C001A4BDA681949BB691343CB6006E0174BD2
:101C1C00DA68BB69DB4315491340CB607B6A01333F
:101C2C007B623B681A687B6A22FA03F3002B7FF411
:101C3C00AFAE00BF00BF2C37BD4680BC704700BFA5
:101C4C0000003210000031100000221000002110A2
:101C5C0000001210000011100010024000000140A2
:101C6C0000080140000C014000100140000401403C
:101C7C0080B485B000AF78600B467B807B689A6837
:101C8C007B881340002B02D00123FB7301E000235F
:101C9C00FB73FB7B18461437BD4680BC704780B481
:101CAC0083B000AF78600B467B8013467B707B78EB
:101CBC00002B03D07A887B681A6103E07B881A04B6
:101CCC007B681A6100BF0C37BD4680BC704780B47E
:101CDC0085B000AF78600B467B807B68DB68FB606F
:101CEC007A88FB6813401A04FB68D9437B880B4045
:101CFC001A437B681A6100BF1437BD4680BC70471D
:101D0C0080B586B000AF78607B68002B01D10123D1
:101D1C006CE27B681B6803F00103002B00F08780EA
:101D2C00924B5B6803F00C03042B0CD08F4B5B685D
:101D3C0003F00C03082B12D18C4B5B6803F480333B
:101D4C00B3F5803F0BD1894B1B6803F40033002B98
:101D5C006CD07B685B68002B68D1012346E27B6802
:101D6C005B68B3F5803F06D1804B1B687F4A43F418
:101D7C00803313602EE07B685B68002B0CD17B4BAF
:101D8C001B687A4A23F480331360784B1B68774ABC
:101D9C0023F4802313601DE07B685B68B3F5A02FF0
:101DAC000CD1724B1B68714A43F4802313606F4B48
:101DBC001B686E4A43F4803313600BE06B4B1B685B
:101DCC006A4A23F480331360684B1B68674A23F418
:101DDC00802313607B685B68002B13D0FFF7B6FC85
:101DEC00386108E0FFF7B2FC02463B69D31A642B5A
:101DFC0001D90323FAE15D4B1B6803F40033002B7C
:101E0C00F0D014E0FFF7A2FC386108E0FFF79EFC6D
:101E1C0002463B69D31A642B01D90323E6E1534BE9
:101E2C001B6803F40033002BF0D100E000BF7B688B
:101E3C001B6803F00203002B63D04C4B5B6803F070
:101E4C000C03002B0BD0494B5B6803F00C03082BE5
:101E5C001CD1464B5B6803F48033002B16D1434BEB
:101E6C001B6803F00203002B05D07B681B69012B58
:101E7C0001D00123BAE13D4B1B6823F0F8027B68CB
:101E8C005B69DB00394913430B603AE07B681B69E3
:101E9C00002B20D0364B01221A60FFF757FC38611B
:101EAC0008E0FFF753FC02463B69D31A022B01D919
:101EBC0003239BE12D4B1B6803F00203002BF0D096
:101ECC002A4B1B6823F0F8027B685B69DB0027490F
:101EDC0013430B6015E0264B00221A60FFF736FC0B
:101EEC00386108E0FFF732FC02463B69D31A022B3B
:101EFC0001D903237AE11D4B1B6803F00203002B6D
:101F0C00F0D17B681B6803F00803002B3AD07B6888
:101F1C009B69002B19D0174B01221A60FFF716FC96
:101F2C00386108E0FFF712FC02463B69D31A022B1A
:101F3C0001D903235AE10D4B5B6A03F00203002B1A
:101F4C00F0D0012000F0A6FA1CE00A4B00221A6027
:101F5C00FFF7FCFB38610FE0FFF7F8FB02463B692B
:101F6C00D31A022B08D9032340E100BF0010024012
:101F7C0000004242800442429E4B5B6A03F0020323
:101F8C00002BE9D17B681B6803F00403002B00F0E5
:101F9C00A6800023FB75974BDB6903F08053002B65
:101FAC000DD1944BDB69934A43F08053D361914B31
:101FBC00DB6903F08053BB60BB680123FB758E4B60
:101FCC001B6803F48073002B18D18B4B1B688A4A57
:101FDC0043F480731360FFF7B9FB386108E0FFF737
:101FEC00B5FB02463B69D31A642B01D90323FDE0F0
:101FFC00814B1B6803F48073002BF0D07B68DB688B
:10200C00012B06D17B4B1B6A7A4A43F00103136206
:10201C002DE07B68DB68002B0CD1764B1B6A754A74
:10202C0023F001031362734B1B6A724A23F00403FF
:10203C0013621CE07B68DB68052B0CD16D4B1B6AB3
:10204C006C4A43F0040313626A4B1B6A694A43F0FF
:10205C00010313620BE0674B1B6A664A23F0010312
:10206C001362644B1B6A634A23F0040313627B689C
:10207C00DB68002B15D0FFF769FB38610AE0FFF72E
:10208C0065FB02463B69D31A41F28832934201D96F
:10209C000323ABE0574B1B6A03F00203002BEED07B
:1020AC0014E0FFF753FB38610AE0FFF74FFB0246E1
:1020BC003B69D31A41F28832934201D9032395E04C
:1020CC004C4B1B6A03F00203002BEED1FB7D012B62
:1020DC0005D1484BDB69474A23F08053D3617B68B9
:1020EC00DB69002B00F08180424B5B6803F00C0332
:1020FC00082B61D07B68DB69022B46D13F4B002259
:10210C001A60FFF723FB386108E0FFF71FFB02465C
:10211C003B69D31A022B01D9032367E0354B1B68AB
:10212C0003F00073002BF0D17B681B6AB3F5803F82
:10213C0008D1304B5B6823F400327B689B682D49D7
:10214C0013434B602B4B5B6823F474127B68196A46
:10215C007B685B6A0B43274913434B60274B012277
:10216C001A60FFF7F3FA386108E0FFF7EFFA02465E
:10217C003B69D31A022B01D9032337E01D4B1B6893
:10218C0003F00073002BF0D02FE01C4B00221A60E0
:10219C00FFF7DCFA386108E0FFF7D8FA02463B6932
:1021AC00D31A022B01D9032320E0124B1B6803F036
:1021BC000073002BF0D118E07B68DB69012B01D197
:1021CC00012313E00B4B5B68FB60FB6803F480326C
:1021DC007B681B6A9A4206D1FB6803F470127B6819
:1021EC005B6A9A4201D0012300E00023184618379D
:1021FC00BD4680BD001002400070004060004242AD
:10220C0080B584B000AF786039607B68002B01D159
:10221C000123D0E06A4B1B6803F007033A689A422B
:10222C0010D9674B1B6823F0070265493B681343C1
:10223C000B60634B1B6803F007033A689A4201D0AA
:10224C000123B8E07B681B6803F00203002B20D04D
:10225C007B681B6803F00403002B05D0594B5B68AB
:10226C00584A43F4E06353607B681B6803F008032F
:10227C00002B05D0534B5B68524A43F460535360B8
:10228C00504B5B6823F0F0027B689B684D4913430D
:10229C004B607B681B6803F00103002B40D07B680C
:1022AC005B68012B07D1474B1B6803F40033002BF1
:1022BC0015D101237FE07B685B68022B07D1414B72
:1022CC001B6803F00073002B09D1012373E03D4B15
:1022DC001B6803F00203002B01D101236BE0394B87
:1022EC005B6823F003027B685B68364913434B60E1
:1022FC00FFF72CFAF8600AE0FFF728FA0246FB68B1
:10230C00D31A41F28832934201D9032353E02D4B67
:10231C005B6803F00C027B685B689B009A42EBD114
:10232C00274B1B6803F007033A689A4210D2244BE0
:10233C001B6823F0070222493B6813430B60204BB8
:10234C001B6803F007033A689A4201D0012332E07C
:10235C007B681B6803F00403002B08D0194B5B68E7
:10236C0023F4E0627B68DB68164913434B607B689F
:10237C001B6803F00803002B09D0124B5B6823F495
:10238C0060527B681B69DB000E4913434B6000F005
:10239C0021F802460B4B5B681B0903F00F030A493B
:1023AC00CB5C22FA03F3094A1360094B1B681846ED
:1023BC00FFF78AF9002318461037BD4680BD00BFD1
:1023CC000020024000100240242D00086000002074
:1023DC006400002090B48AB000AF2A4B3C1D0FCB98
:1023EC0084E80F0040F201233B800023FB610023B3
:1023FC00BB6100237B6200237B6100233B62224B89
:10240C005B68FB61FB6903F00C03042B02D0082B07
:10241C0003D02DE01D4B3B622DE0FB699B0C03F0C0
:10242C000F0307F12802134413F8243C7B61FB696A
:10243C0003F48033002B13D0134B5B685B0C03F05D
:10244C00010307F12802134413F8283CBB617B6994
:10245C000E4A02FB03F2BB69B2FBF3F37B6204E0AE
:10246C007B690B4A02FB03F37B627B6A3B6202E0F3
:10247C00064B3B6200BF3B6A18462837BD4690BCF2
:10248C00704700BF142D00080010024000127A00A3
:10249C0000093D0080B485B000AF78600A4B1B6822
:1024AC000A4AA2FB03235B0A7A6802FB03F3FB6074
:1024BC0000BFFB685A1EFA60002BF9D100BF00BFA9
:1024CC001437BD4680BC704760000020D34D6210AD
:1024DC0080B582B000AF78607B68002B01D10123FE
:1024EC0041E07B6893F83D30DBB2002B06D17B6872
:1024FC00002283F83C207868FFF74EF87B680222B4
:10250C0083F83D207B681A687B68043319461046B3
:10251C0000F06AFA7B68012283F846207B6801226E
:10252C0083F83E207B68012283F83F207B680122E0
:10253C0083F840207B68012283F841207B680122CC
:10254C0083F842207B68012283F843207B680122B8
:10255C0083F844207B68012283F845207B680122A4
:10256C0083F83D20002318460837BD4680BD000087
:10257C0080B485B000AF78607B6893F83D30DBB2F7
:10258C00012B01D0012335E07B68022283F83D202A
:10259C007B681B68DA687B681B6842F00102DA60B2
:1025AC007B681B68164A934209D07B681B68B3F1A1
:1025BC00804F04D07B681B68124A934211D17B6810
:1025CC001B689B6803F00703FB60FB68062B10D0AD
:1025DC007B681B681A687B681B6842F001021A60F2
:1025EC0007E07B681B681A687B681B6842F0010275
:1025FC001A60002318461437BD4680BC704700BFD4
:10260C00002C01400004004080B582B000AF78601F
:10261C007B681B681B6903F00203022B22D17B68C9
:10262C001B68DB6803F00203022B1BD17B681B6861
:10263C006FF002021A617B6801221A777B681B68B3
:10264C009B6903F00303002B03D0786800F0B1F909
:10265C0005E0786800F0A4F9786800F0B3F97B68BD
:10266C0000221A777B681B681B6903F00403042B98
:10267C0022D17B681B68DB6803F00403042B1BD19D
:10268C007B681B686FF004021A617B6802221A7760
:10269C007B681B689B6903F44073002B03D078683C
:1026AC0000F087F905E0786800F07AF9786800F0B6
:1026BC0089F97B6800221A777B681B681B6903F019
:1026CC000803082B22D17B681B68DB6803F0080326
:1026DC00082B1BD17B681B686FF008021A617B68A2
:1026EC0004221A777B681B68DB6903F00303002B59
:1026FC0003D0786800F05DF905E0786800F050F9D7
:10270C00786800F05FF97B6800221A777B681B6899
:10271C001B6903F01003102B22D17B681B68DB684C
:10272C0003F01003102B1BD17B681B686FF0100299
:10273C001A617B6808221A777B681B68DB6903F4D3
:10274C004073002B03D0786800F033F905E078680B
:10275C0000F026F9786800F035F97B6800221A77CA
:10276C007B681B681B6903F00103012B0ED17B688E
:10277C001B68DB6803F00103012B07D17B681B6826
:10278C006FF001021A617868FEF760FE7B681B68C7
:10279C001B6903F08003802B0ED17B681B68DB6800
:1027AC0003F08003802B07D17B681B686FF08002DD
:1027BC001A61786800F067FA7B681B681B6903F084
:1027CC004003402B0ED17B681B68DB6803F0400391
:1027DC00402B07D17B681B686FF040021A61786848
:1027EC0000F0F9F87B681B681B6903F02003202BB1
:1027FC000ED17B681B68DB6803F02003202B07D10C
:10280C007B681B686FF020021A61786800F032FA5E
:10281C0000BF0837BD4680BD80B584B000AF78607E
:10282C0039607B6893F83C30012B01D10223B3E073
:10283C007B68012283F83C207B68022283F83D20D0
:10284C007B681B689B68FB60FB6823F07703FB606D
:10285C00FB6823F47F43FB607B681B68FA689A6013
:10286C003B681B68B3F5005F3ED0B3F5005F00F228
:10287C008780B3F5805F00F08580B3F5805F7FD8EB
:10288C00702B1AD0702B7BD8602B50D0602B77D844
:10289C00502B3CD0502B73D8402B58D0402B6FD89A
:1028AC00302B64D0302B6BD8202B60D0202B67D8EA
:1028BC00002B5CD0102B5AD062E07B6818683B6808
:1028CC0099683B685A683B68DB6800F05CF97B6888
:1028DC001B689B68FB60FB6843F07703FB607B68BD
:1028EC001B68FA689A604EE07B6818683B689968C8
:1028FC003B685A683B68DB6800F045F97B681B68ED
:10290C009A687B681B6842F480429A603BE07B6863
:10291C0018683B6859683B68DB681A4600F0BCF8DD
:10292C007B681B685021184600F013F92BE07B687C
:10293C0018683B6859683B68DB681A4600F0DAF89F
:10294C007B681B686021184600F003F91BE07B686C
:10295C0018683B6859683B68DB681A4600F09CF8BD
:10296C007B681B684021184600F0F3F80BE07B688D
:10297C001A683B681B681946104600F0EAF802E03A
:10298C0000BF00E000BF7B68012283F83D207B681C
:10299C00002283F83C20002318461037BD4680BD2A
:1029AC0080B483B000AF786000BF0C37BD4680BCEC
:1029BC00704780B483B000AF786000BF0C37BD4661
:1029CC0080BC704780B483B000AF786000BF0C3718
:1029DC00BD4680BC704780B483B000AF786000BF48
:1029EC000C37BD4680BC704780B485B000AF7860B2
:1029FC0039607B681B68FB607B68254A934207D073
:102A0C007B68B3F1804F03D07B68224A934208D194
:102A1C00FB6823F07003FB603B685B68FA68134348
:102A2C00FB607B681A4A934207D07B68B3F1804FF6
:102A3C0003D07B68174A934208D1FB6823F4407398
:102A4C00FB603B68DB68FA681343FB60FB6823F0B0
:102A5C0080023B685B691343FB607B68FA681A6011
:102A6C003B689A687B68DA623B681A687B689A6292
:102A7C007B68074A934203D13B681A697B681A63E7
:102A8C007B6801225A6100BF1437BD4680BC704779
:102A9C00002C01400004004080B487B000AFF86007
:102AAC00B9607A60FB681B6A7B61FB681B6A23F068
:102ABC000102FB681A62FB689B693B613B6923F06E
:102ACC00F0033B617B681B013A6913433B617B69F3
:102ADC0023F00A037B617A69BB6813437B61FB6853
:102AEC003A699A61FB687A691A6200BF1C37BD4665
:102AFC0080BC704780B487B000AFF860B9607A6072
:102B0C00FB681B6A23F01002FB681A62FB689B6966
:102B1C007B61FB681B6A3B617B6923F470437B61BF
:102B2C007B681B037A6913437B613B6923F0A00329
:102B3C003B61BB681B013A6913433B61FB687A69D3
:102B4C009A61FB683A691A6200BF1C37BD4680BCAB
:102B5C00704780B485B000AF786039607B689B6843
:102B6C00FB60FB6823F07003FB603A68FB6813435F
:102B7C0043F00703FB607B68FA689A6000BF143768
:102B8C00BD4680BC704780B487B000AFF860B960B8
:102B9C007A603B60FB689B687B617B6923F47F43B5
:102BAC007B613B681A027B681A43BB6813437A69E2
:102BBC0013437B61FB687A699A6000BF1C37BD4682
:102BCC0080BC704780B485B000AF786039607B689A
:102BDC0093F83C30012B01D1022341E07B680122A8
:102BEC0083F83C207B68022283F83D207B681B68BD
:102BFC005B68FB607B681B689B68BB60FB6823F0B1
:102C0C007003FB603B681B68FA681343FB607B68CE
:102C1C001B68FA685A607B681B68144A934209D097
:102C2C007B681B68B3F1804F04D07B681B68104A2B
:102C3C0093420CD1BB6823F08003BB603B685B689C
:102C4C00BA681343BB607B681B68BA689A607B6880
:102C5C00012283F83D207B68002283F83C2000236E
:102C6C0018461437BD4680BC704700BF002C01408D
:102C7C000004004080B483B000AF786000BF0C3714
:102C8C00BD4680BC704780B483B000AF786000BF95
:102C9C000C37BD4680BC704770B500260C4D0D4CF2
:102CAC00641BA410A64209D100F022F800260A4D9C
:102CBC000A4C641BA410A64205D170BD55F8043B08
:102CCC0098470136EEE755F8043B98470136F2E792
:102CDC00342D0008342D0008342D0008382D000840
:102CEC0003460244934200D1704703F8011BF9E7F5
:102CFC00F8B500BFF8BC08BC9E467047F8B500BFDD
:082D0C00F8BC08BC9E467047AC
:102D140002030405060708090A0B0C0D0E0F101018
:102D24000000000000000000010203040607080977
:042D34003101000861
:042D38000D01000881
:102D3C00010000000200000004000000010000007F
:102D4C000100000001000000010000000100000073
:102D5C000100000001000000010000000100000063
:102D6C000100000001000000010000003200000022
:102D7C000B00000007000000070000000500000029
:102D8C000200000003000000010000000100000030
:0C2D9C000024F400100000000100000002
:040000050800165D7C
:00000001FF
